{
  "_format": "hh-sol-artifact-1",
  "contractName": "Gaslessregalis",
  "sourceName": "contracts/Gaslessregalis.sol",
  "abi": [
    {
      "inputs": [
        {
          "internalType": "string[]",
          "name": "characterNames",
          "type": "string[]"
        },
        {
          "internalType": "string[]",
          "name": "characterImageURIs",
          "type": "string[]"
        },
        {
          "internalType": "address",
          "name": "_VRFCordinator",
          "type": "address"
        },
        {
          "internalType": "address",
          "name": "_LinkToken",
          "type": "address"
        },
        {
          "internalType": "bytes32",
          "name": "_keyHash",
          "type": "bytes32"
        },
        {
          "internalType": "uint256",
          "name": "_fee",
          "type": "uint256"
        },
        {
          "internalType": "contract MinimalForwarder",
          "name": "_minimalForwarder",
          "type": "address"
        }
      ],
      "stateMutability": "nonpayable",
      "type": "constructor"
    },
    {
      "anonymous": false,
      "inputs": [
        {
          "indexed": true,
          "internalType": "address",
          "name": "owner",
          "type": "address"
        },
        {
          "indexed": true,
          "internalType": "address",
          "name": "approved",
          "type": "address"
        },
        {
          "indexed": true,
          "internalType": "uint256",
          "name": "tokenId",
          "type": "uint256"
        }
      ],
      "name": "Approval",
      "type": "event"
    },
    {
      "anonymous": false,
      "inputs": [
        {
          "indexed": true,
          "internalType": "address",
          "name": "owner",
          "type": "address"
        },
        {
          "indexed": true,
          "internalType": "address",
          "name": "operator",
          "type": "address"
        },
        {
          "indexed": false,
          "internalType": "bool",
          "name": "approved",
          "type": "bool"
        }
      ],
      "name": "ApprovalForAll",
      "type": "event"
    },
    {
      "anonymous": false,
      "inputs": [
        {
          "indexed": false,
          "internalType": "address",
          "name": "sender",
          "type": "address"
        },
        {
          "indexed": false,
          "internalType": "uint256",
          "name": "tokenId",
          "type": "uint256"
        },
        {
          "indexed": false,
          "internalType": "uint256",
          "name": "characterIndex",
          "type": "uint256"
        }
      ],
      "name": "CharacterNFTMinted",
      "type": "event"
    },
    {
      "anonymous": false,
      "inputs": [
        {
          "indexed": true,
          "internalType": "address",
          "name": "from",
          "type": "address"
        },
        {
          "indexed": true,
          "internalType": "address",
          "name": "to",
          "type": "address"
        },
        {
          "indexed": true,
          "internalType": "uint256",
          "name": "tokenId",
          "type": "uint256"
        }
      ],
      "name": "Transfer",
      "type": "event"
    },
    {
      "inputs": [
        {
          "internalType": "address",
          "name": "to",
          "type": "address"
        },
        {
          "internalType": "uint256",
          "name": "tokenId",
          "type": "uint256"
        }
      ],
      "name": "approve",
      "outputs": [],
      "stateMutability": "nonpayable",
      "type": "function"
    },
    {
      "inputs": [
        {
          "internalType": "address",
          "name": "owner",
          "type": "address"
        }
      ],
      "name": "balanceOf",
      "outputs": [
        {
          "internalType": "uint256",
          "name": "",
          "type": "uint256"
        }
      ],
      "stateMutability": "view",
      "type": "function"
    },
    {
      "inputs": [],
      "name": "checkIfUserHasNFT",
      "outputs": [
        {
          "components": [
            {
              "internalType": "uint256",
              "name": "characterIndex",
              "type": "uint256"
            },
            {
              "internalType": "string",
              "name": "name",
              "type": "string"
            },
            {
              "internalType": "string",
              "name": "imageURI",
              "type": "string"
            }
          ],
          "internalType": "struct Gaslessregalis.RegalisBoxes",
          "name": "",
          "type": "tuple"
        }
      ],
      "stateMutability": "view",
      "type": "function"
    },
    {
      "inputs": [],
      "name": "getAllDefaultCharacters",
      "outputs": [
        {
          "components": [
            {
              "internalType": "uint256",
              "name": "characterIndex",
              "type": "uint256"
            },
            {
              "internalType": "string",
              "name": "name",
              "type": "string"
            },
            {
              "internalType": "string",
              "name": "imageURI",
              "type": "string"
            }
          ],
          "internalType": "struct Gaslessregalis.RegalisBoxes[]",
          "name": "",
          "type": "tuple[]"
        }
      ],
      "stateMutability": "view",
      "type": "function"
    },
    {
      "inputs": [
        {
          "internalType": "uint256",
          "name": "tokenId",
          "type": "uint256"
        }
      ],
      "name": "getApproved",
      "outputs": [
        {
          "internalType": "address",
          "name": "",
          "type": "address"
        }
      ],
      "stateMutability": "view",
      "type": "function"
    },
    {
      "inputs": [],
      "name": "getRandomBox",
      "outputs": [
        {
          "internalType": "bytes32",
          "name": "",
          "type": "bytes32"
        }
      ],
      "stateMutability": "nonpayable",
      "type": "function"
    },
    {
      "inputs": [
        {
          "internalType": "address",
          "name": "owner",
          "type": "address"
        },
        {
          "internalType": "address",
          "name": "operator",
          "type": "address"
        }
      ],
      "name": "isApprovedForAll",
      "outputs": [
        {
          "internalType": "bool",
          "name": "",
          "type": "bool"
        }
      ],
      "stateMutability": "view",
      "type": "function"
    },
    {
      "inputs": [
        {
          "internalType": "address",
          "name": "forwarder",
          "type": "address"
        }
      ],
      "name": "isTrustedForwarder",
      "outputs": [
        {
          "internalType": "bool",
          "name": "",
          "type": "bool"
        }
      ],
      "stateMutability": "view",
      "type": "function"
    },
    {
      "inputs": [],
      "name": "name",
      "outputs": [
        {
          "internalType": "string",
          "name": "",
          "type": "string"
        }
      ],
      "stateMutability": "view",
      "type": "function"
    },
    {
      "inputs": [
        {
          "internalType": "uint256",
          "name": "",
          "type": "uint256"
        }
      ],
      "name": "nftHolderAttributes",
      "outputs": [
        {
          "internalType": "uint256",
          "name": "characterIndex",
          "type": "uint256"
        },
        {
          "internalType": "string",
          "name": "name",
          "type": "string"
        },
        {
          "internalType": "string",
          "name": "imageURI",
          "type": "string"
        }
      ],
      "stateMutability": "view",
      "type": "function"
    },
    {
      "inputs": [
        {
          "internalType": "address",
          "name": "",
          "type": "address"
        }
      ],
      "name": "nftHolders",
      "outputs": [
        {
          "internalType": "uint256",
          "name": "",
          "type": "uint256"
        }
      ],
      "stateMutability": "view",
      "type": "function"
    },
    {
      "inputs": [
        {
          "internalType": "uint256",
          "name": "tokenId",
          "type": "uint256"
        }
      ],
      "name": "ownerOf",
      "outputs": [
        {
          "internalType": "address",
          "name": "",
          "type": "address"
        }
      ],
      "stateMutability": "view",
      "type": "function"
    },
    {
      "inputs": [
        {
          "internalType": "bytes32",
          "name": "requestId",
          "type": "bytes32"
        },
        {
          "internalType": "uint256",
          "name": "randomness",
          "type": "uint256"
        }
      ],
      "name": "rawFulfillRandomness",
      "outputs": [],
      "stateMutability": "nonpayable",
      "type": "function"
    },
    {
      "inputs": [
        {
          "internalType": "bytes32",
          "name": "",
          "type": "bytes32"
        }
      ],
      "name": "requestToSender",
      "outputs": [
        {
          "internalType": "address",
          "name": "",
          "type": "address"
        }
      ],
      "stateMutability": "view",
      "type": "function"
    },
    {
      "inputs": [
        {
          "internalType": "address",
          "name": "from",
          "type": "address"
        },
        {
          "internalType": "address",
          "name": "to",
          "type": "address"
        },
        {
          "internalType": "uint256",
          "name": "tokenId",
          "type": "uint256"
        }
      ],
      "name": "safeTransferFrom",
      "outputs": [],
      "stateMutability": "nonpayable",
      "type": "function"
    },
    {
      "inputs": [
        {
          "internalType": "address",
          "name": "from",
          "type": "address"
        },
        {
          "internalType": "address",
          "name": "to",
          "type": "address"
        },
        {
          "internalType": "uint256",
          "name": "tokenId",
          "type": "uint256"
        },
        {
          "internalType": "bytes",
          "name": "_data",
          "type": "bytes"
        }
      ],
      "name": "safeTransferFrom",
      "outputs": [],
      "stateMutability": "nonpayable",
      "type": "function"
    },
    {
      "inputs": [
        {
          "internalType": "address",
          "name": "operator",
          "type": "address"
        },
        {
          "internalType": "bool",
          "name": "approved",
          "type": "bool"
        }
      ],
      "name": "setApprovalForAll",
      "outputs": [],
      "stateMutability": "nonpayable",
      "type": "function"
    },
    {
      "inputs": [
        {
          "internalType": "bytes4",
          "name": "interfaceId",
          "type": "bytes4"
        }
      ],
      "name": "supportsInterface",
      "outputs": [
        {
          "internalType": "bool",
          "name": "",
          "type": "bool"
        }
      ],
      "stateMutability": "view",
      "type": "function"
    },
    {
      "inputs": [],
      "name": "symbol",
      "outputs": [
        {
          "internalType": "string",
          "name": "",
          "type": "string"
        }
      ],
      "stateMutability": "view",
      "type": "function"
    },
    {
      "inputs": [
        {
          "internalType": "uint256",
          "name": "_tokenId",
          "type": "uint256"
        }
      ],
      "name": "tokenURI",
      "outputs": [
        {
          "internalType": "string",
          "name": "",
          "type": "string"
        }
      ],
      "stateMutability": "view",
      "type": "function"
    },
    {
      "inputs": [
        {
          "internalType": "address",
          "name": "from",
          "type": "address"
        },
        {
          "internalType": "address",
          "name": "to",
          "type": "address"
        },
        {
          "internalType": "uint256",
          "name": "tokenId",
          "type": "uint256"
        }
      ],
      "name": "transferFrom",
      "outputs": [],
      "stateMutability": "nonpayable",
      "type": "function"
    }
  ],
  "bytecode": "0x60c06040523480156200001157600080fd5b5060405162004f7f38038062004f7f8339818101604052810190620000379190620007e8565b8085856040518060400160405280600781526020017f526567616c6973000000000000000000000000000000000000000000000000008152506040518060400160405280600181526020017f52000000000000000000000000000000000000000000000000000000000000008152508160009080519060200190620000be929190620005ad565b508060019080519060200190620000d7929190620005ad565b5050508173ffffffffffffffffffffffffffffffffffffffff1660a08173ffffffffffffffffffffffffffffffffffffffff1660601b815250508073ffffffffffffffffffffffffffffffffffffffff1660808173ffffffffffffffffffffffffffffffffffffffff1660601b81525050505080600760006101000a81548173ffffffffffffffffffffffffffffffffffffffff021916908373ffffffffffffffffffffffffffffffffffffffff1602179055505082600a8190555081600b8190555060005b8751811015620004a057600c60405180606001604052808381526020018a8481518110620001f4577f4e487b7100000000000000000000000000000000000000000000000000000000600052603260045260246000fd5b602002602001015181526020018984815181106200023b577f4e487b7100000000000000000000000000000000000000000000000000000000600052603260045260246000fd5b6020026020010151815250908060018154018082558091505060019003906000526020600020906003020160009091909190915060008201518160000155602082015181600101908051906020019062000297929190620005ad565b506040820151816002019080519060200190620002b6929190620005ad565b5050506000600c8281548110620002f6577f4e487b7100000000000000000000000000000000000000000000000000000000600052603260045260246000fd5b9060005260206000209060030201604051806060016040529081600082015481526020016001820180546200032b9062000af3565b80601f0160208091040260200160405190810160405280929190818152602001828054620003599062000af3565b8015620003aa5780601f106200037e57610100808354040283529160200191620003aa565b820191906000526020600020905b8154815290600101906020018083116200038c57829003601f168201915b50505050508152602001600282018054620003c59062000af3565b80601f0160208091040260200160405190810160405280929190818152602001828054620003f39062000af3565b8015620004445780601f10620004185761010080835404028352916020019162000444565b820191906000526020600020905b8154815290600101906020018083116200042657829003601f168201915b50505050508152505090506200048860405180606001604052806023815260200162004f5c6023913982602001518360400151620004c560201b620015521760201c565b5060018162000498919062000a04565b90506200019d565b50620004b860096200056e60201b620015f11760201c565b5050505050505062000c65565b62000569838383604051602401620004e09392919062000908565b6040516020818303038152906040527f2ced7cef000000000000000000000000000000000000000000000000000000007bffffffffffffffffffffffffffffffffffffffffffffffffffffffff19166020820180517bffffffffffffffffffffffffffffffffffffffffffffffffffffffff83818316178352505050506200058460201b60201c565b505050565b6001816000016000828254019250508190555050565b60008151905060006a636f6e736f6c652e6c6f679050602083016000808483855afa5050505050565b828054620005bb9062000af3565b90600052602060002090601f016020900481019282620005df57600085556200062b565b82601f10620005fa57805160ff19168380011785556200062b565b828001600101855582156200062b579182015b828111156200062a5782518255916020019190600101906200060d565b5b5090506200063a91906200063e565b5090565b5b80821115620006595760008160009055506001016200063f565b5090565b6000620006746200066e8462000983565b6200095a565b905080838252602082019050828560208602820111156200069457600080fd5b60005b85811015620006e357815167ffffffffffffffff811115620006b857600080fd5b808601620006c78982620007a4565b8552602085019450602084019350505060018101905062000697565b5050509392505050565b600062000704620006fe84620009b2565b6200095a565b9050828152602081018484840111156200071d57600080fd5b6200072a84828562000abd565b509392505050565b600081519050620007438162000bfd565b92915050565b600082601f8301126200075b57600080fd5b81516200076d8482602086016200065d565b91505092915050565b600081519050620007878162000c17565b92915050565b6000815190506200079e8162000c31565b92915050565b600082601f830112620007b657600080fd5b8151620007c8848260208601620006ed565b91505092915050565b600081519050620007e28162000c4b565b92915050565b600080600080600080600060e0888a0312156200080457600080fd5b600088015167ffffffffffffffff8111156200081f57600080fd5b6200082d8a828b0162000749565b975050602088015167ffffffffffffffff8111156200084b57600080fd5b620008598a828b0162000749565b96505060406200086c8a828b0162000732565b95505060606200087f8a828b0162000732565b9450506080620008928a828b0162000776565b93505060a0620008a58a828b01620007d1565b92505060c0620008b88a828b016200078d565b91505092959891949750929550565b6000620008d482620009e8565b620008e08185620009f3565b9350620008f281856020860162000abd565b620008fd8162000bec565b840191505092915050565b60006060820190508181036000830152620009248186620008c7565b905081810360208301526200093a8185620008c7565b90508181036040830152620009508184620008c7565b9050949350505050565b60006200096662000979565b905062000974828262000b29565b919050565b6000604051905090565b600067ffffffffffffffff821115620009a157620009a062000bbd565b5b602082029050602081019050919050565b600067ffffffffffffffff821115620009d057620009cf62000bbd565b5b620009db8262000bec565b9050602081019050919050565b600081519050919050565b600082825260208201905092915050565b600062000a118262000ab3565b915062000a1e8362000ab3565b9250827fffffffffffffffffffffffffffffffffffffffffffffffffffffffffffffffff0382111562000a565762000a5562000b5f565b5b828201905092915050565b600062000a6e8262000a93565b9050919050565b6000819050919050565b600062000a8c8262000a61565b9050919050565b600073ffffffffffffffffffffffffffffffffffffffff82169050919050565b6000819050919050565b60005b8381101562000add57808201518184015260208101905062000ac0565b8381111562000aed576000848401525b50505050565b6000600282049050600182168062000b0c57607f821691505b6020821081141562000b235762000b2262000b8e565b5b50919050565b62000b348262000bec565b810181811067ffffffffffffffff8211171562000b565762000b5562000bbd565b5b80604052505050565b7f4e487b7100000000000000000000000000000000000000000000000000000000600052601160045260246000fd5b7f4e487b7100000000000000000000000000000000000000000000000000000000600052602260045260246000fd5b7f4e487b7100000000000000000000000000000000000000000000000000000000600052604160045260246000fd5b6000601f19601f8301169050919050565b62000c088162000a61565b811462000c1457600080fd5b50565b62000c228162000a75565b811462000c2e57600080fd5b50565b62000c3c8162000a7f565b811462000c4857600080fd5b50565b62000c568162000ab3565b811462000c6257600080fd5b50565b60805160601c60a05160601c6142bd62000c9f60003960008181610b5f0152611b1f015260008181610a030152611ae301526142bd6000f3fe608060405234801561001057600080fd5b50600436106101375760003560e01c80637df124a1116100b8578063a22cb4651161007c578063a22cb46514610388578063b88d4fde146103a4578063b953084e146103c0578063c87b56dd146103de578063c8cf27f41461040e578063e985e9c51461042c57610137565b80637df124a1146102ce57806385ccd9c1146102fe57806394985ddd1461031c57806395d89b411461033857806398da4c951461035657610137565b8063274ac0c3116100ff578063274ac0c3146101f257806342842e0e14610222578063572b6c051461023e5780636352211e1461026e57806370a082311461029e57610137565b806301ffc9a71461013c57806306fdde031461016c578063081812fc1461018a578063095ea7b3146101ba57806323b872dd146101d6575b600080fd5b61015660048036038101906101519190612cb4565b61045c565b6040516101639190613449565b60405180910390f35b61017461053e565b60405161018191906134ed565b60405180910390f35b6101a4600480360381019061019f9190612d06565b6105d0565b6040516101b1919061334b565b60405180910390f35b6101d460048036038101906101cf9190612bea565b610655565b005b6101f060048036038101906101eb9190612ae4565b61076d565b005b61020c60048036038101906102079190612c4f565b6107cd565b604051610219919061334b565b60405180910390f35b61023c60048036038101906102379190612ae4565b610800565b005b61025860048036038101906102539190612a7f565b610820565b6040516102659190613449565b60405180910390f35b61028860048036038101906102839190612d06565b61087a565b604051610295919061334b565b60405180910390f35b6102b860048036038101906102b39190612a7f565b61092c565b6040516102c5919061379b565b60405180910390f35b6102e860048036038101906102e39190612a7f565b6109e4565b6040516102f5919061379b565b60405180910390f35b6103066109fc565b6040516103139190613464565b60405180910390f35b61033660048036038101906103319190612c78565b610b5d565b005b610340610bf9565b60405161034d91906134ed565b60405180910390f35b610370600480360381019061036b9190612d06565b610c8b565b60405161037f939291906137b6565b60405180910390f35b6103a2600480360381019061039d9190612bae565b610dc5565b005b6103be60048036038101906103b99190612b33565b610f46565b005b6103c8610fa8565b6040516103d59190613427565b60405180910390f35b6103f860048036038101906103f39190612d06565b611135565b60405161040591906134ed565b60405180910390f35b6104166112f6565b6040516104239190613779565b60405180910390f35b61044660048036038101906104419190612aa8565b6114be565b6040516104539190613449565b60405180910390f35b60007f80ac58cd000000000000000000000000000000000000000000000000000000007bffffffffffffffffffffffffffffffffffffffffffffffffffffffff1916827bffffffffffffffffffffffffffffffffffffffffffffffffffffffff1916148061052757507f5b5e139f000000000000000000000000000000000000000000000000000000007bffffffffffffffffffffffffffffffffffffffffffffffffffffffff1916827bffffffffffffffffffffffffffffffffffffffffffffffffffffffff1916145b80610537575061053682611607565b5b9050919050565b60606000805461054d90613ab3565b80601f016020809104026020016040519081016040528092919081815260200182805461057990613ab3565b80156105c65780601f1061059b576101008083540402835291602001916105c6565b820191906000526020600020905b8154815290600101906020018083116105a957829003601f168201915b5050505050905090565b60006105db82611671565b61061a576040517f08c379a0000000000000000000000000000000000000000000000000000000008152600401610611906136d9565b60405180910390fd5b6004600083815260200190815260200160002060009054906101000a900473ffffffffffffffffffffffffffffffffffffffff169050919050565b60006106608261087a565b90508073ffffffffffffffffffffffffffffffffffffffff168373ffffffffffffffffffffffffffffffffffffffff1614156106d1576040517f08c379a00000000000000000000000000000000000000000000000000000000081526004016106c890613739565b60405180910390fd5b8073ffffffffffffffffffffffffffffffffffffffff166106f06116dd565b73ffffffffffffffffffffffffffffffffffffffff16148061071f575061071e816107196116dd565b6114be565b5b61075e576040517f08c379a000000000000000000000000000000000000000000000000000000000815260040161075590613659565b60405180910390fd5b61076883836116ec565b505050565b61077e6107786116dd565b826117a5565b6107bd576040517f08c379a00000000000000000000000000000000000000000000000000000000081526004016107b490613759565b60405180910390fd5b6107c8838383611883565b505050565b60086020528060005260406000206000915054906101000a900473ffffffffffffffffffffffffffffffffffffffff1681565b61081b83838360405180602001604052806000815250610f46565b505050565b6000600760009054906101000a900473ffffffffffffffffffffffffffffffffffffffff1673ffffffffffffffffffffffffffffffffffffffff168273ffffffffffffffffffffffffffffffffffffffff16149050919050565b6000806002600084815260200190815260200160002060009054906101000a900473ffffffffffffffffffffffffffffffffffffffff169050600073ffffffffffffffffffffffffffffffffffffffff168173ffffffffffffffffffffffffffffffffffffffff161415610923576040517f08c379a000000000000000000000000000000000000000000000000000000000815260040161091a90613699565b60405180910390fd5b80915050919050565b60008073ffffffffffffffffffffffffffffffffffffffff168273ffffffffffffffffffffffffffffffffffffffff16141561099d576040517f08c379a000000000000000000000000000000000000000000000000000000000815260040161099490613679565b60405180910390fd5b600360008373ffffffffffffffffffffffffffffffffffffffff1673ffffffffffffffffffffffffffffffffffffffff168152602001908152602001600020549050919050565b600e6020528060005260406000206000915090505481565b6000600b547f000000000000000000000000000000000000000000000000000000000000000073ffffffffffffffffffffffffffffffffffffffff166370a08231306040518263ffffffff1660e01b8152600401610a5a919061334b565b60206040518083038186803b158015610a7257600080fd5b505afa158015610a86573d6000803e3d6000fd5b505050506040513d601f19601f82011682018060405250810190610aaa9190612d2f565b1015610aeb576040517f08c379a0000000000000000000000000000000000000000000000000000000008152600401610ae290613619565b60405180910390fd5b6000610afb600a54600b54611adf565b9050610b056116dd565b6008600083815260200190815260200160002060006101000a81548173ffffffffffffffffffffffffffffffffffffffff021916908373ffffffffffffffffffffffffffffffffffffffff1602179055508091505090565b7f000000000000000000000000000000000000000000000000000000000000000073ffffffffffffffffffffffffffffffffffffffff163373ffffffffffffffffffffffffffffffffffffffff1614610beb576040517f08c379a0000000000000000000000000000000000000000000000000000000008152600401610be290613719565b60405180910390fd5b610bf58282611c41565b5050565b606060018054610c0890613ab3565b80601f0160208091040260200160405190810160405280929190818152602001828054610c3490613ab3565b8015610c815780601f10610c5657610100808354040283529160200191610c81565b820191906000526020600020905b815481529060010190602001808311610c6457829003601f168201915b5050505050905090565b600d602052806000526040600020600091509050806000015490806001018054610cb490613ab3565b80601f0160208091040260200160405190810160405280929190818152602001828054610ce090613ab3565b8015610d2d5780601f10610d0257610100808354040283529160200191610d2d565b820191906000526020600020905b815481529060010190602001808311610d1057829003601f168201915b505050505090806002018054610d4290613ab3565b80601f0160208091040260200160405190810160405280929190818152602001828054610d6e90613ab3565b8015610dbb5780601f10610d9057610100808354040283529160200191610dbb565b820191906000526020600020905b815481529060010190602001808311610d9e57829003601f168201915b5050505050905083565b610dcd6116dd565b73ffffffffffffffffffffffffffffffffffffffff168273ffffffffffffffffffffffffffffffffffffffff161415610e3b576040517f08c379a0000000000000000000000000000000000000000000000000000000008152600401610e32906135f9565b60405180910390fd5b8060056000610e486116dd565b73ffffffffffffffffffffffffffffffffffffffff1673ffffffffffffffffffffffffffffffffffffffff16815260200190815260200160002060008473ffffffffffffffffffffffffffffffffffffffff1673ffffffffffffffffffffffffffffffffffffffff16815260200190815260200160002060006101000a81548160ff0219169083151502179055508173ffffffffffffffffffffffffffffffffffffffff16610ef56116dd565b73ffffffffffffffffffffffffffffffffffffffff167f17307eab39ab6107e8899845ad3d59bd9653f200f220920489ca2b5937696c3183604051610f3a9190613449565b60405180910390a35050565b610f57610f516116dd565b836117a5565b610f96576040517f08c379a0000000000000000000000000000000000000000000000000000000008152600401610f8d90613759565b60405180910390fd5b610fa284848484611c9e565b50505050565b6060600c805480602002602001604051908101604052809291908181526020016000905b8282101561112c57838290600052602060002090600302016040518060600160405290816000820154815260200160018201805461100990613ab3565b80601f016020809104026020016040519081016040528092919081815260200182805461103590613ab3565b80156110825780601f1061105757610100808354040283529160200191611082565b820191906000526020600020905b81548152906001019060200180831161106557829003601f168201915b5050505050815260200160028201805461109b90613ab3565b80601f01602080910402602001604051908101604052809291908181526020018280546110c790613ab3565b80156111145780601f106110e957610100808354040283529160200191611114565b820191906000526020600020905b8154815290600101906020018083116110f757829003601f168201915b50505050508152505081526020019060010190610fcc565b50505050905090565b60606000600d60008481526020019081526020016000206040518060600160405290816000820154815260200160018201805461117190613ab3565b80601f016020809104026020016040519081016040528092919081815260200182805461119d90613ab3565b80156111ea5780601f106111bf576101008083540402835291602001916111ea565b820191906000526020600020905b8154815290600101906020018083116111cd57829003601f168201915b5050505050815260200160028201805461120390613ab3565b80601f016020809104026020016040519081016040528092919081815260200182805461122f90613ab3565b801561127c5780601f106112515761010080835404028352916020019161127c565b820191906000526020600020905b81548152906001019060200180831161125f57829003601f168201915b505050505081525050905060006112c5826020015161129a86611cfa565b84604001516040516020016112b1939291906132cc565b604051602081830303815290604052611ea7565b90506000816040516020016112da9190613329565b6040516020818303038152906040529050809350505050919050565b6112fe6128ab565b60006113086116dd565b90506000600e60008373ffffffffffffffffffffffffffffffffffffffff1673ffffffffffffffffffffffffffffffffffffffff16815260200190815260200160002054905060008111156114ac57600d60008281526020019081526020016000206040518060600160405290816000820154815260200160018201805461138f90613ab3565b80601f01602080910402602001604051908101604052809291908181526020018280546113bb90613ab3565b80156114085780601f106113dd57610100808354040283529160200191611408565b820191906000526020600020905b8154815290600101906020018083116113eb57829003601f168201915b5050505050815260200160028201805461142190613ab3565b80601f016020809104026020016040519081016040528092919081815260200182805461144d90613ab3565b801561149a5780601f1061146f5761010080835404028352916020019161149a565b820191906000526020600020905b81548152906001019060200180831161147d57829003601f168201915b505050505081525050925050506114bb565b6114b46128ab565b8093505050505b90565b6000600560008473ffffffffffffffffffffffffffffffffffffffff1673ffffffffffffffffffffffffffffffffffffffff16815260200190815260200160002060008373ffffffffffffffffffffffffffffffffffffffff1673ffffffffffffffffffffffffffffffffffffffff16815260200190815260200160002060009054906101000a900460ff16905092915050565b6115ec83838360405160240161156a9392919061350f565b6040516020818303038152906040527f2ced7cef000000000000000000000000000000000000000000000000000000007bffffffffffffffffffffffffffffffffffffffffffffffffffffffff19166020820180517bffffffffffffffffffffffffffffffffffffffffffffffffffffffff8381831617835250505050612052565b505050565b6001816000016000828254019250508190555050565b60007f01ffc9a7000000000000000000000000000000000000000000000000000000007bffffffffffffffffffffffffffffffffffffffffffffffffffffffff1916827bffffffffffffffffffffffffffffffffffffffffffffffffffffffff1916149050919050565b60008073ffffffffffffffffffffffffffffffffffffffff166002600084815260200190815260200160002060009054906101000a900473ffffffffffffffffffffffffffffffffffffffff1673ffffffffffffffffffffffffffffffffffffffff1614159050919050565b60006116e761207b565b905090565b816004600083815260200190815260200160002060006101000a81548173ffffffffffffffffffffffffffffffffffffffff021916908373ffffffffffffffffffffffffffffffffffffffff160217905550808273ffffffffffffffffffffffffffffffffffffffff1661175f8361087a565b73ffffffffffffffffffffffffffffffffffffffff167f8c5be1e5ebec7d5bd14f71427d1e84f3dd0314c0f7b2291e5b200ac8c7c3b92560405160405180910390a45050565b60006117b082611671565b6117ef576040517f08c379a00000000000000000000000000000000000000000000000000000000081526004016117e690613639565b60405180910390fd5b60006117fa8361087a565b90508073ffffffffffffffffffffffffffffffffffffffff168473ffffffffffffffffffffffffffffffffffffffff16148061186957508373ffffffffffffffffffffffffffffffffffffffff16611851846105d0565b73ffffffffffffffffffffffffffffffffffffffff16145b8061187a575061187981856114be565b5b91505092915050565b8273ffffffffffffffffffffffffffffffffffffffff166118a38261087a565b73ffffffffffffffffffffffffffffffffffffffff16146118f9576040517f08c379a00000000000000000000000000000000000000000000000000000000081526004016118f0906136f9565b60405180910390fd5b600073ffffffffffffffffffffffffffffffffffffffff168273ffffffffffffffffffffffffffffffffffffffff161415611969576040517f08c379a0000000000000000000000000000000000000000000000000000000008152600401611960906135d9565b60405180910390fd5b6119748383836120ad565b61197f6000826116ec565b6001600360008573ffffffffffffffffffffffffffffffffffffffff1673ffffffffffffffffffffffffffffffffffffffff16815260200190815260200160002060008282546119cf91906139bf565b925050819055506001600360008473ffffffffffffffffffffffffffffffffffffffff1673ffffffffffffffffffffffffffffffffffffffff1681526020019081526020016000206000828254611a2691906138de565b92505081905550816002600083815260200190815260200160002060006101000a81548173ffffffffffffffffffffffffffffffffffffffff021916908373ffffffffffffffffffffffffffffffffffffffff160217905550808273ffffffffffffffffffffffffffffffffffffffff168473ffffffffffffffffffffffffffffffffffffffff167fddf252ad1be2c89b69c2b068fc378daa952ba7f163c4a11628f55a4df523b3ef60405160405180910390a4505050565b60007f000000000000000000000000000000000000000000000000000000000000000073ffffffffffffffffffffffffffffffffffffffff16634000aea07f000000000000000000000000000000000000000000000000000000000000000084866000604051602001611b5392919061347f565b6040516020818303038152906040526040518463ffffffff1660e01b8152600401611b80939291906133b2565b602060405180830381600087803b158015611b9a57600080fd5b505af1158015611bae573d6000803e3d6000fd5b505050506040513d601f19601f82011682018060405250810190611bd29190612c26565b506000611bf58460003060066000898152602001908152602001600020546120b2565b905060016006600086815260200190815260200160002054611c1791906138de565b6006600086815260200190815260200160002081905550611c3884826120ee565b91505092915050565b60006008600084815260200190815260200160002060009054906101000a900473ffffffffffffffffffffffffffffffffffffffff1690506000600c8054905083611c8c9190613b73565b9050611c988183612121565b50505050565b611ca9848484611883565b611cb584848484612405565b611cf4576040517f08c379a0000000000000000000000000000000000000000000000000000000008152600401611ceb90613599565b60405180910390fd5b50505050565b60606000821415611d42576040518060400160405280600181526020017f30000000000000000000000000000000000000000000000000000000000000008152509050611ea2565b600082905060005b60008214611d74578080611d5d90613b16565b915050600a82611d6d9190613934565b9150611d4a565b60008167ffffffffffffffff811115611db6577f4e487b7100000000000000000000000000000000000000000000000000000000600052604160045260246000fd5b6040519080825280601f01601f191660200182016040528015611de85781602001600182028036833780820191505090505b5090505b60008514611e9b57600182611e0191906139bf565b9150600a85611e109190613b73565b6030611e1c91906138de565b60f81b818381518110611e58577f4e487b7100000000000000000000000000000000000000000000000000000000600052603260045260246000fd5b60200101907effffffffffffffffffffffffffffffffffffffffffffffffffffffffffffff1916908160001a905350600a85611e949190613934565b9450611dec565b8093505050505b919050565b6060600082511415611eca5760405180602001604052806000815250905061204d565b60006040518060600160405280604081526020016142076040913990506000600360028551611ef991906138de565b611f039190613934565b6004611f0f9190613965565b90506000602082611f2091906138de565b67ffffffffffffffff811115611f5f577f4e487b7100000000000000000000000000000000000000000000000000000000600052604160045260246000fd5b6040519080825280601f01601f191660200182016040528015611f915781602001600182028036833780820191505090505b509050818152600183018586518101602084015b8183101561200c576003830192508251603f8160121c1685015160f81b8252600182019150603f81600c1c1685015160f81b8252600182019150603f8160061c1685015160f81b8252600182019150603f811685015160f81b825260018201915050611fa5565b600389510660018114612026576002811461203657612041565b613d3d60f01b6002830352612041565b603d60f81b60018303525b50505050508093505050505b919050565b60008151905060006a636f6e736f6c652e6c6f679050602083016000808483855afa5050505050565b600061208633610820565b1561209a57601436033560601c90506120a9565b6120a261259c565b90506120aa565b5b90565b505050565b6000848484846040516020016120cb94939291906134a8565b6040516020818303038152906040528051906020012060001c9050949350505050565b600082826040516020016121039291906132a0565b60405160208183030381529060405280519060200120905092915050565b600061212d60096125a4565b905061213982826125b2565b6040518060600160405280848152602001600c8581548110612184577f4e487b7100000000000000000000000000000000000000000000000000000000600052603260045260246000fd5b906000526020600020906003020160010180546121a090613ab3565b80601f01602080910402602001604051908101604052809291908181526020018280546121cc90613ab3565b80156122195780601f106121ee57610100808354040283529160200191612219565b820191906000526020600020905b8154815290600101906020018083116121fc57829003601f168201915b50505050508152602001600c858154811061225d577f4e487b7100000000000000000000000000000000000000000000000000000000600052603260045260246000fd5b9060005260206000209060030201600201805461227990613ab3565b80601f01602080910402602001604051908101604052809291908181526020018280546122a590613ab3565b80156122f25780601f106122c7576101008083540402835291602001916122f2565b820191906000526020600020905b8154815290600101906020018083116122d557829003601f168201915b5050505050815250600d60008381526020019081526020016000206000820151816000015560208201518160010190805190602001906123339291906128cc565b5060408201518160020190805190602001906123509291906128cc565b509050506123776040518060800160405280604181526020016142476041913982856125d0565b80600e60008473ffffffffffffffffffffffffffffffffffffffff1673ffffffffffffffffffffffffffffffffffffffff168152602001908152602001600020819055506123c560096115f1565b7f4bc303fd457a97b4691b9af582ce71868a3d258638c8d4f8c60988a0f0bfb8cd8282856040516123f8939291906133f0565b60405180910390a1505050565b60006124268473ffffffffffffffffffffffffffffffffffffffff1661266f565b1561258f578373ffffffffffffffffffffffffffffffffffffffff1663150b7a0261244f6116dd565b8786866040518563ffffffff1660e01b81526004016124719493929190613366565b602060405180830381600087803b15801561248b57600080fd5b505af19250505080156124bc57506040513d601f19601f820116820180604052508101906124b99190612cdd565b60015b61253f573d80600081146124ec576040519150601f19603f3d011682016040523d82523d6000602084013e6124f1565b606091505b50600081511415612537576040517f08c379a000000000000000000000000000000000000000000000000000000000815260040161252e90613599565b60405180910390fd5b805181602001fd5b63150b7a0260e01b7bffffffffffffffffffffffffffffffffffffffffffffffffffffffff1916817bffffffffffffffffffffffffffffffffffffffffffffffffffffffff191614915050612594565b600190505b949350505050565b600033905090565b600081600001549050919050565b6125cc828260405180602001604052806000815250612682565b5050565b61266a8383836040516024016125e89392919061355b565b6040516020818303038152906040527f969cdd03000000000000000000000000000000000000000000000000000000007bffffffffffffffffffffffffffffffffffffffffffffffffffffffff19166020820180517bffffffffffffffffffffffffffffffffffffffffffffffffffffffff8381831617835250505050612052565b505050565b600080823b905060008111915050919050565b61268c83836126dd565b6126996000848484612405565b6126d8576040517f08c379a00000000000000000000000000000000000000000000000000000000081526004016126cf90613599565b60405180910390fd5b505050565b600073ffffffffffffffffffffffffffffffffffffffff168273ffffffffffffffffffffffffffffffffffffffff16141561274d576040517f08c379a0000000000000000000000000000000000000000000000000000000008152600401612744906136b9565b60405180910390fd5b61275681611671565b15612796576040517f08c379a000000000000000000000000000000000000000000000000000000000815260040161278d906135b9565b60405180910390fd5b6127a2600083836120ad565b6001600360008473ffffffffffffffffffffffffffffffffffffffff1673ffffffffffffffffffffffffffffffffffffffff16815260200190815260200160002060008282546127f291906138de565b92505081905550816002600083815260200190815260200160002060006101000a81548173ffffffffffffffffffffffffffffffffffffffff021916908373ffffffffffffffffffffffffffffffffffffffff160217905550808273ffffffffffffffffffffffffffffffffffffffff16600073ffffffffffffffffffffffffffffffffffffffff167fddf252ad1be2c89b69c2b068fc378daa952ba7f163c4a11628f55a4df523b3ef60405160405180910390a45050565b60405180606001604052806000815260200160608152602001606081525090565b8280546128d890613ab3565b90600052602060002090601f0160209004810192826128fa5760008555612941565b82601f1061291357805160ff1916838001178555612941565b82800160010185558215612941579182015b82811115612940578251825591602001919060010190612925565b5b50905061294e9190612952565b5090565b5b8082111561296b576000816000905550600101612953565b5090565b600061298261297d84613820565b6137fb565b90508281526020810184848401111561299a57600080fd5b6129a5848285613a71565b509392505050565b6000813590506129bc81614193565b92915050565b6000813590506129d1816141aa565b92915050565b6000815190506129e6816141aa565b92915050565b6000813590506129fb816141c1565b92915050565b600081359050612a10816141d8565b92915050565b600081519050612a25816141d8565b92915050565b600082601f830112612a3c57600080fd5b8135612a4c84826020860161296f565b91505092915050565b600081359050612a64816141ef565b92915050565b600081519050612a79816141ef565b92915050565b600060208284031215612a9157600080fd5b6000612a9f848285016129ad565b91505092915050565b60008060408385031215612abb57600080fd5b6000612ac9858286016129ad565b9250506020612ada858286016129ad565b9150509250929050565b600080600060608486031215612af957600080fd5b6000612b07868287016129ad565b9350506020612b18868287016129ad565b9250506040612b2986828701612a55565b9150509250925092565b60008060008060808587031215612b4957600080fd5b6000612b57878288016129ad565b9450506020612b68878288016129ad565b9350506040612b7987828801612a55565b925050606085013567ffffffffffffffff811115612b9657600080fd5b612ba287828801612a2b565b91505092959194509250565b60008060408385031215612bc157600080fd5b6000612bcf858286016129ad565b9250506020612be0858286016129c2565b9150509250929050565b60008060408385031215612bfd57600080fd5b6000612c0b858286016129ad565b9250506020612c1c85828601612a55565b9150509250929050565b600060208284031215612c3857600080fd5b6000612c46848285016129d7565b91505092915050565b600060208284031215612c6157600080fd5b6000612c6f848285016129ec565b91505092915050565b60008060408385031215612c8b57600080fd5b6000612c99858286016129ec565b9250506020612caa85828601612a55565b9150509250929050565b600060208284031215612cc657600080fd5b6000612cd484828501612a01565b91505092915050565b600060208284031215612cef57600080fd5b6000612cfd84828501612a16565b91505092915050565b600060208284031215612d1857600080fd5b6000612d2684828501612a55565b91505092915050565b600060208284031215612d4157600080fd5b6000612d4f84828501612a6a565b91505092915050565b6000612d6483836131bd565b905092915050565b612d75816139f3565b82525050565b6000612d8682613861565b612d90818561388f565b935083602082028501612da285613851565b8060005b85811015612dde5784840389528151612dbf8582612d58565b9450612dca83613882565b925060208a01995050600181019050612da6565b50829750879550505050505092915050565b612df981613a05565b82525050565b612e0881613a11565b82525050565b612e1f612e1a82613a11565b613b5f565b82525050565b6000612e308261386c565b612e3a81856138a0565b9350612e4a818560208601613a80565b612e5381613c60565b840191505092915050565b6000612e6982613877565b612e7381856138b1565b9350612e83818560208601613a80565b612e8c81613c60565b840191505092915050565b6000612ea282613877565b612eac81856138c2565b9350612ebc818560208601613a80565b612ec581613c60565b840191505092915050565b6000612edb82613877565b612ee581856138d3565b9350612ef5818560208601613a80565b80840191505092915050565b6000612f0e600b836138d3565b9150612f1982613c71565b600b82019050919050565b6000612f316032836138c2565b9150612f3c82613c9a565b604082019050919050565b6000612f54601c836138c2565b9150612f5f82613ce9565b602082019050919050565b6000612f776024836138c2565b9150612f8282613d12565b604082019050919050565b6000612f9a6019836138c2565b9150612fa582613d61565b602082019050919050565b6000612fbd602b836138c2565b9150612fc882613d8a565b604082019050919050565b6000612fe0602c836138c2565b9150612feb82613dd9565b604082019050919050565b60006130036038836138c2565b915061300e82613e28565b604082019050919050565b6000613026602a836138c2565b915061303182613e77565b604082019050919050565b60006130496029836138c2565b915061305482613ec6565b604082019050919050565b600061306c605b836138d3565b915061307782613f15565b605b82019050919050565b600061308f6002836138d3565b915061309a82613f8a565b600282019050919050565b60006130b26020836138c2565b91506130bd82613fb3565b602082019050919050565b60006130d5602c836138c2565b91506130e082613fdc565b604082019050919050565b60006130f86029836138c2565b91506131038261402b565b604082019050919050565b600061311b600a836138d3565b91506131268261407a565b600a82019050919050565b600061313e601f836138c2565b9150613149826140a3565b602082019050919050565b60006131616021836138c2565b915061316c826140cc565b604082019050919050565b6000613184601d836138d3565b915061318f8261411b565b601d82019050919050565b60006131a76031836138c2565b91506131b282614144565b604082019050919050565b60006060830160008301516131d5600086018261326b565b50602083015184820360208601526131ed8282612e5e565b915050604083015184820360408601526132078282612e5e565b9150508091505092915050565b600060608301600083015161322c600086018261326b565b50602083015184820360208601526132448282612e5e565b9150506040830151848203604086015261325e8282612e5e565b9150508091505092915050565b61327481613a67565b82525050565b61328381613a67565b82525050565b61329a61329582613a67565b613b69565b82525050565b60006132ac8285612e0e565b6020820191506132bc8284613289565b6020820191508190509392505050565b60006132d78261310e565b91506132e38286612ed0565b91506132ee82612f01565b91506132fa8285612ed0565b91506133058261305f565b91506133118284612ed0565b915061331c82613082565b9150819050949350505050565b600061333482613177565b91506133408284612ed0565b915081905092915050565b60006020820190506133606000830184612d6c565b92915050565b600060808201905061337b6000830187612d6c565b6133886020830186612d6c565b613395604083018561327a565b81810360608301526133a78184612e25565b905095945050505050565b60006060820190506133c76000830186612d6c565b6133d4602083018561327a565b81810360408301526133e68184612e25565b9050949350505050565b60006060820190506134056000830186612d6c565b613412602083018561327a565b61341f604083018461327a565b949350505050565b600060208201905081810360008301526134418184612d7b565b905092915050565b600060208201905061345e6000830184612df0565b92915050565b60006020820190506134796000830184612dff565b92915050565b60006040820190506134946000830185612dff565b6134a1602083018461327a565b9392505050565b60006080820190506134bd6000830187612dff565b6134ca602083018661327a565b6134d76040830185612d6c565b6134e4606083018461327a565b95945050505050565b600060208201905081810360008301526135078184612e97565b905092915050565b600060608201905081810360008301526135298186612e97565b9050818103602083015261353d8185612e97565b905081810360408301526135518184612e97565b9050949350505050565b600060608201905081810360008301526135758186612e97565b9050613584602083018561327a565b613591604083018461327a565b949350505050565b600060208201905081810360008301526135b281612f24565b9050919050565b600060208201905081810360008301526135d281612f47565b9050919050565b600060208201905081810360008301526135f281612f6a565b9050919050565b6000602082019050818103600083015261361281612f8d565b9050919050565b6000602082019050818103600083015261363281612fb0565b9050919050565b6000602082019050818103600083015261365281612fd3565b9050919050565b6000602082019050818103600083015261367281612ff6565b9050919050565b6000602082019050818103600083015261369281613019565b9050919050565b600060208201905081810360008301526136b28161303c565b9050919050565b600060208201905081810360008301526136d2816130a5565b9050919050565b600060208201905081810360008301526136f2816130c8565b9050919050565b60006020820190508181036000830152613712816130eb565b9050919050565b6000602082019050818103600083015261373281613131565b9050919050565b6000602082019050818103600083015261375281613154565b9050919050565b600060208201905081810360008301526137728161319a565b9050919050565b600060208201905081810360008301526137938184613214565b905092915050565b60006020820190506137b0600083018461327a565b92915050565b60006060820190506137cb600083018661327a565b81810360208301526137dd8185612e97565b905081810360408301526137f18184612e97565b9050949350505050565b6000613805613816565b90506138118282613ae5565b919050565b6000604051905090565b600067ffffffffffffffff82111561383b5761383a613c31565b5b61384482613c60565b9050602081019050919050565b6000819050602082019050919050565b600081519050919050565b600081519050919050565b600081519050919050565b6000602082019050919050565b600082825260208201905092915050565b600082825260208201905092915050565b600082825260208201905092915050565b600082825260208201905092915050565b600081905092915050565b60006138e982613a67565b91506138f483613a67565b9250827fffffffffffffffffffffffffffffffffffffffffffffffffffffffffffffffff0382111561392957613928613ba4565b5b828201905092915050565b600061393f82613a67565b915061394a83613a67565b92508261395a57613959613bd3565b5b828204905092915050565b600061397082613a67565b915061397b83613a67565b9250817fffffffffffffffffffffffffffffffffffffffffffffffffffffffffffffffff04831182151516156139b4576139b3613ba4565b5b828202905092915050565b60006139ca82613a67565b91506139d583613a67565b9250828210156139e8576139e7613ba4565b5b828203905092915050565b60006139fe82613a47565b9050919050565b60008115159050919050565b6000819050919050565b60007fffffffff0000000000000000000000000000000000000000000000000000000082169050919050565b600073ffffffffffffffffffffffffffffffffffffffff82169050919050565b6000819050919050565b82818337600083830152505050565b60005b83811015613a9e578082015181840152602081019050613a83565b83811115613aad576000848401525b50505050565b60006002820490506001821680613acb57607f821691505b60208210811415613adf57613ade613c02565b5b50919050565b613aee82613c60565b810181811067ffffffffffffffff82111715613b0d57613b0c613c31565b5b80604052505050565b6000613b2182613a67565b91507fffffffffffffffffffffffffffffffffffffffffffffffffffffffffffffffff821415613b5457613b53613ba4565b5b600182019050919050565b6000819050919050565b6000819050919050565b6000613b7e82613a67565b9150613b8983613a67565b925082613b9957613b98613bd3565b5b828206905092915050565b7f4e487b7100000000000000000000000000000000000000000000000000000000600052601160045260246000fd5b7f4e487b7100000000000000000000000000000000000000000000000000000000600052601260045260246000fd5b7f4e487b7100000000000000000000000000000000000000000000000000000000600052602260045260246000fd5b7f4e487b7100000000000000000000000000000000000000000000000000000000600052604160045260246000fd5b6000601f19601f8301169050919050565b7f202d2d204e465420233a20000000000000000000000000000000000000000000600082015250565b7f4552433732313a207472616e7366657220746f206e6f6e20455243373231526560008201527f63656976657220696d706c656d656e7465720000000000000000000000000000602082015250565b7f4552433732313a20746f6b656e20616c7265616479206d696e74656400000000600082015250565b7f4552433732313a207472616e7366657220746f20746865207a65726f2061646460008201527f7265737300000000000000000000000000000000000000000000000000000000602082015250565b7f4552433732313a20617070726f766520746f2063616c6c657200000000000000600082015250565b7f4e6f7420656e6f756768204c494e4b202d2066696c6c20636f6e74726163742060008201527f7769746820666175636574000000000000000000000000000000000000000000602082015250565b7f4552433732313a206f70657261746f7220717565727920666f72206e6f6e657860008201527f697374656e7420746f6b656e0000000000000000000000000000000000000000602082015250565b7f4552433732313a20617070726f76652063616c6c6572206973206e6f74206f7760008201527f6e6572206e6f7220617070726f76656420666f7220616c6c0000000000000000602082015250565b7f4552433732313a2062616c616e636520717565727920666f7220746865207a6560008201527f726f206164647265737300000000000000000000000000000000000000000000602082015250565b7f4552433732313a206f776e657220717565727920666f72206e6f6e657869737460008201527f656e7420746f6b656e0000000000000000000000000000000000000000000000602082015250565b7f222c20226465736372697074696f6e223a2022546869732069732061204e465460008201527f207468617420776173206f627461696e656420696e206120626f78206f66207260208201527f6567616c69732e222c2022696d616765223a2022697066733a2f2f0000000000604082015250565b7f227d000000000000000000000000000000000000000000000000000000000000600082015250565b7f4552433732313a206d696e7420746f20746865207a65726f2061646472657373600082015250565b7f4552433732313a20617070726f76656420717565727920666f72206e6f6e657860008201527f697374656e7420746f6b656e0000000000000000000000000000000000000000602082015250565b7f4552433732313a207472616e73666572206f6620746f6b656e2074686174206960008201527f73206e6f74206f776e0000000000000000000000000000000000000000000000602082015250565b7f7b226e616d65223a202200000000000000000000000000000000000000000000600082015250565b7f4f6e6c7920565246436f6f7264696e61746f722063616e2066756c66696c6c00600082015250565b7f4552433732313a20617070726f76616c20746f2063757272656e74206f776e6560008201527f7200000000000000000000000000000000000000000000000000000000000000602082015250565b7f646174613a6170706c69636174696f6e2f6a736f6e3b6261736536342c000000600082015250565b7f4552433732313a207472616e736665722063616c6c6572206973206e6f74206f60008201527f776e6572206e6f7220617070726f766564000000000000000000000000000000602082015250565b61419c816139f3565b81146141a757600080fd5b50565b6141b381613a05565b81146141be57600080fd5b50565b6141ca81613a11565b81146141d557600080fd5b50565b6141e181613a1b565b81146141ec57600080fd5b50565b6141f881613a67565b811461420357600080fd5b5056fe4142434445464748494a4b4c4d4e4f505152535455565758595a6162636465666768696a6b6c6d6e6f707172737475767778797a303132333435363738392b2f4d696e746564204e465420772f20746f6b656e496420257320616e6420636861726163746572496e6465782025732c20436861726163746572206e616d65202573a264697066735822122024337085dfab4f1e2d87c280779bd5ef9e529d73336d0def82290cf50978477e64736f6c63430008040033446f6e6520696e697469616c697a696e6720257320772f20696d675572693a2025732c",
  "linkReferences": {},
  "deployedLinkReferences": {}
}